:020000040000FA
:100000000C942A010C9452010C9452010C9452014C
:100010000C9452010C9452010C9452010C94520114
:100020000C9452010C9452010C9452010C94520104
:100030000C9452010C9452010C9452010C945201F4
:100040000C944E0F0C9452010C94BE0F0C94980F0C
:100050000C9452010C9452010C9452010C945201D4
:100060000C94F00F0C9452010000000023002600B5
:10007000290043004D61782056616C75653A200077
:1000800043004D61782056616C75653A200043004D
:100090004D61782056616C75653A2000556E697126
:1000A00075652049443A200044726976657220568D
:1000B00065723A200053656E736F722054797065D3
:1000C0003A200048756D69646974792053656E73D0
:1000D0006F720043004D61782056616C75653A205F
:1000E0000043004D61782056616C75653A200043ED
:1000F000004D61782056616C75653A2000556E6937
:100100007175652049443A20004472697665722011
:100110005665723A200053656E736F722054797081
:10012000653A200054656D70657261747572652062
:1001300053656E736F72002D2D2D2D2D2D2D2D2DB0
:100140002D2D2D2D2D2D2D2D2D2D2D2D2D2D2D2DDF
:100150002D2D2D2D2D2D2D2D2D00444854313120A8
:10016000426567696E0050726573737572652073BE
:10017000656E736F7220696E697469616C697A6506
:1001800064002D2D2D2D2D2D2D2D2D2D2D2D2D2D95
:100190002D2D2D2D2D2D2D2D2D2D2D2D2D2D2D2D8F
:1001A0002D2D2D2D00506100507265737375726591
:1001B0003A20004572726F722072656164696E67E1
:1001C0002068756D696469747900250048756D69EA
:1001D000646974793A2000430054656D70657261FA
:1001E000747572653A20004572726F722072656193
:1001F00064696E672074656D70657261747572658F
:100200000000000000240027002A00000000002554
:100210000028002B00000000080002010000030479
:1002200007000000000000000004040404040404AB
:100230000402020202020203030303030301020495
:100240000810204080010204081020010204081058
:1002500020000F1111241FBECFEFD8E0DEBFCDBFAD
:1002600012E0A0E0B1E0E8E0F3E302C005900D92F7
:10027000AE31B107D9F723E0AEE1B2E001C01D9283
:10028000AF3DB207E1F711E0CAE2D1E004C0219727
:10029000FE010E944818C932D107C9F70E94A71170
:1002A0000C9482190C9400000895089590E0FC01CC
:1002B000EB5EFD4F2491FC01E35CFD4F3491FC01AA
:1002C000E75DFD4FE491EE23C9F0222339F023309E
:1002D00001F1A8F4213019F1223029F1F0E0EE0FFC
:1002E000FF1FE55FFD4FA591B4918FB7F894EC9196
:1002F000611126C030953E233C938FBF089527306F
:10030000A9F02830C9F0243049F7809180008F7D12
:1003100003C0809180008F7780938000DFCF84B509
:100320008F7784BDDBCF84B58F7DFBCF8091B0000C
:100330008F778093B000D2CF8091B0008F7DF9CFBE
:100340003E2BDACFCF93DF9390E0FC01E35CFD4FCF
:100350002491875D9D4FFC0184918823D1F090E02A
:10036000880F991FFC01EF5FFD4FA591B491FC012F
:10037000E55FFD4FC591D491623071F49FB7F89459
:100380003C91822F809583238C93E8812E2B2883A8
:100390009FBFDF91CF9108958FB7F894EC912E2BEA
:1003A0002C938FBFF6CF8E50806480937C00809119
:1003B0007A00806480937A0080917A0086FDFCCF79
:1003C000809178009091790008953FB7F8948091DA
:1003D0006B0290916C02A0916D02B0916E0226B5F5
:1003E000A89B05C02F3F19F00196A11DB11D3FBF6D
:1003F000BA2FA92F982F8827BC01CD01620F711D3C
:10040000811D911D42E0660F771F881F991F4A9535
:10041000D1F708958F929F92AF92BF92CF92DF92C1
:10042000EF92FF926B017C010E94E5014B015C01A0
:10043000C114D104E104F104B9F00E94E501681986
:1004400079098A099B09683E73408105910580F30B
:1004500021E0C21AD108E108F10888EE880E83E095
:10046000981EA11CB11CE4CFFF90EF90DF90CF90BD
:10047000BF90AF909F908F900895DC01ED91FC911B
:100480000190F081E02D0994AF92BF92CF92DF925C
:10049000EF92FF920F931F93CF93DF936C017B0139
:1004A0008B01040F151FEB015E01AE18BF08C017CA
:1004B000D10759F06991D601ED91FC910190F0813D
:1004C000E02DC6010995892B79F7C501DF91CF9100
:1004D0001F910F91FF90EF90DF90CF90BF90AF9062
:1004E0000895FC01538D448D252F30E0842F90E03A
:1004F000821B930B541710F0CF960895019708951F
:10050000FC01918D828D981761F0A28DAE0FBF2FE7
:10051000B11D5D968C91928D9F5F9F73928F90E03D
:1005200008958FEF9FEF0895FC01918D828D9817AC
:1005300031F0828DE80FF11D858D90E008958FEFE9
:100540009FEF0895FC01918D228D892F90E0805CB2
:100550009F4F821B91098F739927089589EE92E02E
:100560000E94A20221E0892B09F420E0822F089545
:1005700080E090E0892B29F00E94AE0281110C945A
:1005800000000895FC01A48DA80FB92FB11DA35A36
:10059000BF4F2C91848D90E001968F739927848FA3
:1005A000A689B7892C93A089B1898C9183708064C6
:1005B0008C93938D848D981306C00288F389E02D67
:1005C00080818F7D80830895EF92FF920F931F9318
:1005D000CF93DF93EC0181E0888F9B8D8C8D9813F6
:1005E0001AC0E889F989808185FF15C09FB7F89402
:1005F000EE89FF896083E889F9898081837080644E
:1006000080839FBF81E090E0DF91CF911F910F9198
:10061000FF90EF900895F62E0B8D10E00F5F1F4FA7
:100620000F731127E02E8C8D8E110CC00FB607FCB6
:10063000FACFE889F989808185FFF5CFCE010E9444
:10064000C202F1CFEB8DEC0FFD2FF11DE35AFF4FEE
:10065000F0829FB7F8940B8FEA89FB8980818062D2
:10066000CFCF0F931F93CF93DF938C01D0E0C0E0E7
:10067000F801EC0FFD1F6491662341F089EE92E0D2
:100680000E94E402892B11F02196F2CFCE01DF9176
:10069000CF911F910F910895CF93DF93EC01888D37
:1006A0008823B9F0AA89BB89E889F9898C9185FDED
:1006B00003C0808186FD0DC00FB607FCF7CF8C917B
:1006C00085FFF2CF808185FFEDCFCE010E94C2026F
:1006D000E9CFDF91CF9108950895FC0183898B3094
:1006E00051F480E492E4AFE0B0E0FB0184A395A371
:1006F000A6A3B7A3089580E894E8AEE1B0E0F5CFF3
:10070000CF92DF92EF92FF92CF93DF93DC011796A7
:10071000CC911797D0E06111DC2F18962C91189787
:1007200030E0220F331F28593F4F50E040E0F901DD
:1007300085919491FC01F080BA0190E080E0EF2D6A
:10074000EC23ED1310C04F5F5F4F1D96CD90DD90F1
:10075000ED90FC9050976C157D058E059F0538F344
:100760006FEF7FEFCB01DF91CF91FF90EF90DF90A4
:10077000CF9008958F929F92AF92BF92CF92DF92C7
:10078000EF92FF920F931F93CF93DF93CDB7DEB716
:10079000C054D1400FB6F894DEBF0FBECDBF2FB707
:1007A000F89440916F0250917002609171027091C3
:1007B00072022FBFFC0101851285238534856A01F1
:1007C0007B01C01AD10AE20AF30A97018601003DB3
:1007D000174021053105B0F4FC018189C05CDE4F72
:1007E0000FB6F894DEBF0FBECDBFDF91CF911F9142
:1007F0000F91FF90EF90DF90CF90BF90AF909F90C0
:100800008F9008958C01FC0141875287638774871C
:100810001482138212821182108262E085810E940A
:10082000A20161E070E080E090E00E940A0261E0D5
:10083000F80185810E94A20160E0F80185810E9493
:100840005601F80186818551823028F58BE291E1CD
:100850000197F1F762E0F80185810E94A201F80199
:10086000828990E08230910538F0880F991F880FB7
:10087000991F05970197F1F7F89460E0C8010E946D
:1008800080036F3F7F4F8F4F9F4F61F4F801118AB4
:10089000789480E0A3CF64E170E080E090E00E9473
:1008A0000A02D8CF61E0C8010E9480036F3F7F4FEA
:1008B0008F4F9F4F59F3CE0101967C015E019FEB54
:1008C000A91A9EEFB90A670160E0C8010E9480037F
:1008D000F601608371838283938361E0C8010E9483
:1008E0008003F6016483758386839783F8E0CF0ED7
:1008F000D11CCA14DB0441F7789430E020E0F70102
:1009000080809180A280B380448155816681778107
:10091000FFEF8F169F06AF06BF0631F04F3F8FEFF8
:1009200058076807780719F4F801118AB2CFF9015E
:1009300083E0F595E7958A95E1F7E00FF11F808157
:10094000880F84169506A606B706F0F080832F5F01
:100950003F4FF8E0EF0EF11C2832310581F6F80127
:10096000448120818181280F3327331F8281280F02
:10097000311D8381820F932F911D992748171906E6
:1009800099F681E0818B2ACF8160E0CF20913F02F0
:10099000260F3327331F21323105ECF42091BF029B
:1009A000FC0190E080E0243069F082E00895A0919D
:1009B0003F022191AC01415E5D4FA40FB52FB11DE7
:1009C0002C930196861798F380913F02680F6093ED
:1009D0003F0280E0089581E008951092BF0281E017
:1009E0008093BE021092990261E082E10E9456015A
:1009F00061E083E10E945601E9EBF0E080818E7FA7
:100A0000808380818D7F808388E48093B80085E433
:100A10008093BC0008951092780210927702109291
:100A2000C6021092E8020E94ED0484E591E09093E2
:100A300076028093750285E591E09093740280932D
:100A400073020895CF93DF9391E090931E02882361
:100A5000B9F0C091B800D091BA008091BC008A7BF7
:100A60008093BC0060E082E10E94560160E083E177
:100A70000E9456010E94ED04D093BA00C093B800C2
:100A8000DF91CF9108958F929F92AF92BF92CF92B4
:100A9000DF92EF92FF920F931F93CF93DF93D0914A
:100AA000E802D13208F0D7C0182FC091E7020E94A7
:100AB000E5016B017C018091BF0281116BC082E076
:100AC0008093BF021093BE028FEF8093BD021092FD
:100AD000BC02D093BB02A7ECB2E0EBE9F2E080E00D
:100AE000D81391C010929A0280919A02CC0FC82B11
:100AF000C0939A0280919902813009F088C01092C7
:100B000099020E94E5016B017C0180919A02809319
:100B1000BB008091C1029091C202A091C302B0912A
:100B2000C402892B8A2B8B2BA1F00E94E501009136
:100B3000C1021091C2022091C3023091C4026C190B
:100B40007D098E099F09061717072807390708F43A
:100B500042C08091BC0083FDD8CF85EC8093BC005F
:100B60000E94E5016B017C018091BF02823009F493
:100B700050C08091BD028F3F09F46FC08091BD02CB
:100B8000803209F46CC08091BD02803309F469C0E1
:100B900084E026C08091C1029091C202A091C3025C
:100BA000B091C402892B8A2B8B2B09F484CF0E942D
:100BB000E5018090C1029090C202A090C302B09063
:100BC000C4026C197D098E099F0986169706A8062E
:100BD000B90608F070CF8091C0020E94220585E01E
:100BE0001092C6021092E8021092C502DF91CF91D6
:100BF0001F910F91FF90EF90DF90CF90BF90AF903B
:100C00009F908F9008959D9191938F5F69CF85EE0E
:100C1000A5CF8091C1029091C202A091C302B09170
:100C2000C402892B8A2B8B2B09F49ECF0E94E501ED
:100C30000091C1021091C2022091C3023091C402FE
:100C40006C197D098E099F090617170728073907B0
:100C500008F08ACFC0CF81E0C3CF80E0C1CF82E06F
:100C6000BFCF83E0BDCFDC0111968D919C91DC015B
:100C7000ED91FC910280F381E02D41E050E0099577
:100C8000019729F481E00E94430591E0811190E0F1
:100C9000892F08950F931F93CF93DF93E1E0F0E046
:100CA0002115310511F0E2E0F0E0EC01AC81BD81ED
:100CB000AE17BF0738F1DA018B0189819A8148812B
:100CC00051E05093C5024093E7021092C602109281
:100CD000E802232B41F4B801CE01DF91CF911F919F
:100CE0000F910C9433061097B1F3FC0120813181F0
:100CF000F9012281338141E050E0BD01F9010995FC
:100D0000019749F380E0DF91CF911F910F910895F2
:100D1000CF93DF93EC018B818823A1F0888191E050
:100D20009093C5028093E7021092C6021092E802E7
:100D300081E00E94430591E0811190E0892FDF91CD
:100D4000CF9108950E940B0581E08B83CE010E9414
:100D50008806982F8111E2CFF1CF0895E0917802B3
:100D600080917702E81730F4F0E0E758FD4F80817A
:100D700090E008958FEF9FEF089590917802809111
:100D800077022FEF3FEF981748F4E92FF0E0E7588C
:100D9000FD4F208130E09F5F90937802C901089554
:100DA0008091770290917802891B990B0895CF92D8
:100DB000DF92EF92FF920F931F93CF93DF937C010B
:100DC000CB018A012091C502222389F0EB016B013E
:100DD000C40ED51ECC15DD0569F06991D701ED91E2
:100DE000FC910190F081E02DC7010995F3CF642FAC
:100DF0000E94C604C801DF91CF911F910F91FF900F
:100E0000EF90DF90CF900895CF93DF931F92CDB7EF
:100E1000DEB769832091C5022223F9F02091E80210
:100E2000203258F021E030E0FC013383228390E04F
:100E300080E00F90DF91CF9108958091C602E82F56
:100E4000F0E0E953FD4F998190838F5F8093C60254
:100E50008093E80281E090E0ECCF61E0CE01019662
:100E60000E94C604F7CFFC01248131E03093C50213
:100E70002093E7021092C6021092E8028385682B45
:100E800086E893E00E94040781E00C94430590E01B
:100E900080E00895089508952F923F924F925F92B7
:100EA0006F927F928F929F92AF92BF92CF92DF927A
:100EB000EF92FF920F931F93CF93DF93DC01149671
:100EC000ED91FC911597EF2B09F422C169012A01DC
:100ED000EC01888191E09093C5028093E702109223
:100EE000C6021092E802CD010E943306782E8823B4
:100EF00009F40EC1F12CE12C332433948C819D81B3
:100F000086010E191F098017910708F48C012880AB
:100F10000E94E5014B015C018091BF02811173C009
:100F2000602EB0E2B01710F480E2682E3092BF025B
:100F300021E0C601801B910BE816F90608F420E0B9
:100F40002093BE02EFEFE093BD021092BC028FEF40
:100F5000860D8093BB0230929A0280919A02220CF5
:100F6000282A20929A0280919902813009F090C03B
:100F7000109299020E94E5014B015C0180919A0256
:100F80008093BB008091C1029091C202A091C302E4
:100F9000B091C402892B8A2B8B2BA1F00E94E50112
:100FA0002091C1023091C2024091C3025091C4020B
:100FB000681979098A099B092617370748075907CD
:100FC00008F442C08091BC0083FDD8CFF5ECF093CB
:100FD000BC000E94E5014B015C018091BF028130A1
:100FE00009F45AC08091BC02861510F46090BC02CE
:100FF000ABE9B2E0E9E7F2E080E0861551F19D91BE
:1010000091938F5FFACF8091C1029091C202A0911B
:10101000C302B091C402892B8A2B8B2B09F47CCF9D
:101020000E94E5012091C1023091C2024091C302A9
:101030005091C402681979098A099B092617370754
:101040004807590708F068CF8091C0020E94220526
:10105000612C10927802609277026016110609F0F6
:1010600057C042018E0C9F1C5401C5018819990973
:101070008017910798F589819A81DC01ED91FC91A7
:101080000284F385E02D0995F50181935F01EDCF91
:1010900085EE8093BC009DCF8091C1029091C202E9
:1010A000A091C302B091C402892B8A2B8B2B09F427
:1010B00094CF0E94E5012091C1023091C20240917B
:1010C000C3025091C402681979098A099B0926173D
:1010D00037074807590708F080CFB6CFE00EF11E5A
:1010E000EC14FD0408F40ACF872DDF91CF911F91F6
:1010F0000F91FF90EF90DF90CF90BF90AF909F90B7
:101100008F907F906F905F904F903F902F900895B9
:10111000712CEACFCF93DF9300D01F92CDB7DEB70B
:101120008B8322E030E0AE014F5F5F4FBE016D5F09
:101130007F4F80919E0390919F030E944C0789816D
:101140009A819827892798270F900F900F90DF9109
:10115000CF9108954F925F926F927F928F929F925C
:10116000AF92BF92CF92DF92EF92FF921F93CF93F5
:10117000DF93CDB7DEB72A970FB6F894DEBF0FBE68
:10118000CDBF8EE28E8314EF1D8321E030E0AE01EF
:101190004B5F5F4FBE016A5F7F4F80919E039091CE
:1011A0009F030E944A0665E070E080E090E00E94A4
:1011B0000A0286EF0E948A084C01B12CA12C809172
:1011C000A0038295880F880F807C8C5C8C831B83A6
:1011D00021E030E0AE014D5F5F4FBE016C5F7F4F9D
:1011E00080919E0390919F030E944A068091A003E4
:1011F00081117DC165E070E080E090E00E940A020C
:1012000086EF0E948A08B0E0A0E0CC24D82EE92E18
:10121000FA2E88EF8A8321E030E0AE014F5F5F4F06
:10122000BE016E5F7F4F80919E0390919F030E944D
:101230004C078981C82A1091A0038091B503909131
:10124000B603A5019401281B390B41095109A0914E
:10125000B303B091B4030E941B162B013C01AFE015
:101260007594679457944794AA95D1F76091AD030C
:101270007091AE03072E000C880B990BBBE0660F34
:10128000771F881F991FBA95D1F72091AF0330912E
:10129000B003032E000C440B550B240D351D461DC9
:1012A000571D0E94FC15420E531E641E751E20EA37
:1012B000421A2FE0520A61087108A3019201C3018A
:1012C000B2010E9429184B015C018CE0B594A794EF
:1012D000979487948A95D1F7A091A503B091A6031E
:1012E0000E9426169B01AC019DE0559547953795C8
:1012F00027959A95D1F72F83388749875A87A091E8
:10130000A703B091A803A50194010E9426169C0191
:10131000552737FD5095452F8F819885A985BA852A
:10132000280F391F4A1F5B1F2E5F3F4F4F4F5F4FE4
:1013300062E055954795379527956A95D1F73058CE
:101340004F4F5F4FA091B103B091B2030E941B16A3
:101350009B01AC017FE056954795379527957A9587
:10136000D1F72F83388749875A8788E090E0811B1F
:10137000910904C0F694E794D794C7948A95D2F75C
:10138000A091A903B091AA03A50194010E94261679
:101390004B015C01EBE0B594A79497948794EA9590
:1013A000D1F7A091A303B091A403A30192010E94DD
:1013B0002616FBE09595879577956795FA95D1F771
:1013C000680D791D8A1D9B1D8090A1039090A2033A
:1013D000092C000CAA08BB08A2E0880C991CAA1CC6
:1013E000BB1CAA95D1F7680D791D8A1D9B1D012E86
:1013F00004C0660F771F881F991F0A94D2F76E5F8B
:101400007F4F8F4F9F4F24E030E040E050E00E943C
:10141000FC15D701C601821B930BA40BB50B9C01D5
:10142000AD0160E573EC80E090E004C0969587958F
:10143000779567951A95D2F70E94291897FD6AC08B
:10144000660F771F881F991F2F81388549855A8518
:101450000E942E1669017A019927F7FC9A958F2D23
:101460007E2D6D2D9B01AC010E9429189B01AC01C2
:10147000AEEDBBE00E941B164B015C01A3E4B3EE92
:10148000A70196010E942916BC01992777FD909526
:10149000892F4501BB2497FCB094AB2C680D791DB6
:1014A0008A1D9B1D6153714F8F4F9F4F44E095954F
:1014B0008795779567954A95D1F76C0D7D1D8E1DA3
:1014C0009F1D2A960FB6F894DEBF0FBECDBFDF91E9
:1014D000CF911F91FF90EF90DF90CF90BF90AF9092
:1014E0009F908F907F906F905F904F900895813084
:1014F00029F468E070E080E090E080CE823029F44A
:101500006EE070E080E090E079CE6AE170E080E02B
:1015100090E074CE2F81388549855A850E942E1619
:1015200069017A01CC0CDD1CEE1CFF1C95CF0F93DA
:101530001F93CF938C01C62F0E9433076C2F6460DA
:10154000C8010E9433076C2F6B7FC8010E943307CC
:1015500083EC90E00197F1F7CF911F910F910895DF
:101560000F931F93CF93DF938C01D62FC42F607FEF
:10157000642B0E94970A80E1D89FB00111246C2B44
:10158000C801DF91CF911F910F910C94970ACF93CF
:10159000DF93CDB7DEB728970FB6F894DEBF0FBE46
:1015A000CDBF98E0E6E0F1E0DE01119601900D92EA
:1015B0009A95E1F790919A03981710F48FEF890F9D
:1015C00090E0880F991F21E030E02C0F3D1F820F23
:1015D000931FFC016081606840E082E993E02896F7
:1015E0000FB6F894DEBF0FBECDBFDF91CF910C9444
:1015F000B00A41E00E94B00A81E090E008950C94A6
:10160000EA180C94EA18FB0101900020E9F73197E1
:10161000AF01461B570BDC01ED91FC910280F38179
:10162000E02D09948F929F92AF92BF92EF92FF921A
:101630000F931F93CF93DF93CDB7DEB7A1970FB66C
:10164000F894DEBF0FBECDBF7C01FA01CB0119A219
:10165000223008F42AE08E010F5D1F4F822E912C5C
:10166000B12CA12CBF01A50194010E942E16F901F5
:10167000CA016A300CF5605DD8016E938D01232B91
:10168000242B252B79F790E080E0109721F0BD0105
:10169000C7010E94030BA1960FB6F894DEBF0FBEE0
:1016A000CDBFDF91CF911F910F91FF90EF90BF9031
:1016B000AF909F908F900895695CDECFCF92DF92BC
:1016C000EF92FF920F931F93CF93DF9377FF1DC08D
:1016D0006A017B01EC016DE20E943D028C0144270E
:1016E0005527BA014C195D096E097F092AE0CE0120
:1016F0000E94120B800F911FDF91CF911F910F91CC
:10170000FF90EF90DF90CF9008952AE0DF91CF9186
:101710001F910F91FF90EF90DF90CF900C94120BE0
:10172000AB01770F660B770B0C945E0BCF93DF93B7
:10173000BC0189EE92E00E94030BEC016AE571E0C6
:1017400089EE92E00E94030B8C0F9D1FDF91CF91D9
:101750000895CF93DF930E943103EC016AE571E0B5
:1017600089EE92E00E94030B8C0F9D1FDF91CF91B9
:1017700008958F929F92AF92BF92CF92DF92EF9295
:10178000FF920F931F93CF93DF93EC016A017B01CC
:10179000AB019601CB01B6010E9424186DE571E002
:1017A000811126C046015701E894B7F82FEF3FEFAB
:1017B0004FE75FE7C501B4010E94241881110CC0F6
:1017C0002FEF3FEF4FE75FE7C501B4010E94CC1652
:1017D00061E671E0181664F02FEF3FEF4FE75FE42A
:1017E000C701B6010E94B21718168CF465E671E0C5
:1017F000CE01DF91CF911F910F91FF90EF90DF907D
:10180000CF90BF90AF909F908F900C94030B2FEFD1
:101810003FEF4FE75FECC701B6010E94CC1687FD92
:10182000E5CF20E030E0A901C701B6010E94CC1647
:1018300010E000E087FF09C06DE2CE010E943D028A
:101840008C01F7FAF094F7F8F0942AE037ED43EAC8
:101850005BE3C701B6010E9460166B017C010E9428
:10186000D1164B015C010E9400179B01AC01C7011E
:10187000B6010E945F166B017C012AE0B501A4014C
:10188000CE010E94120B080F191F6EE2CE010E94BA
:101890003D02080F191F20E030E040E251E4C7018B
:1018A000B6010E94B7174B015C010E94D1166B0173
:1018B000F12CE12C2AE0B701A601CE010E94120B07
:1018C000080F191FC701B6010E9400179B01AC0148
:1018D000C501B4010E945F1620E030E040E251E40F
:1018E0000E94B7170E94D116AB0170E060E02AE0B9
:1018F000CE010E94120B800F911FDF91CF911F919B
:101900000F91FF90EF90DF90CF90BF90AF909F909E
:101910008F900895CF93DF93AB01BC0189EE92E0E5
:101920000E945E0BEC016AE571E089EE92E00E9494
:10193000030B8C0F9D1FDF91CF9108950C94030B27
:10194000CF92DF92EF92FF920F931F93CF93DF938B
:10195000EB01FB01349620E2DF011D922A95E9F7A5
:1019600044E250E060E070E0488359836A837B83FF
:10197000FC0144815581668177814C835D836E8350
:101980007F834CE050E060E070E0488759876A87C9
:101990007B872FB7F89440916F025091700260914D
:1019A0007102709172022FBF488B598B6A8B7B8BAF
:1019B00002811381C8010E94BA03882349F0F8010B
:1019C00086818B3028F08D3040F08551823070F167
:1019D00060E070E080EC9FE71BC0618170E090E008
:1019E00080E00E9402172DEC3CEC4CEC5DE30E9481
:1019F000B7176B017C01F801608170E090E080E036
:101A00000E9402179B01AC01C701B6010E9460163B
:101A10006C8B7D8B8E8B9F8B81E0DF91CF911F91A3
:101A20000F91FF90EF90DF90CF90089560817181CA
:101A300076276727762790E080E00E9400172DEC3C
:101A40003CEC4CEC5DE30E94B717E2CF8F929F9283
:101A5000AF92BF92EF92FF921F93CF93DF93EB0170
:101A6000FB01349620E2DF011D922A95E9F744E25A
:101A700050E060E070E0488359836A837B83FC0117
:101A800044815581668177814C835D836E837F833A
:101A90004DE050E060E070E0488759876A877B87B7
:101AA0002FB7F89440916F025091700260917102CB
:101AB000709172022FBF488B598B6A8B7B8BE280AF
:101AC000F380C7010E94BA03882341F0F7018681A1
:101AD0008C3009F455C038F48B30E1F060E070E0F0
:101AE00080EC9FE73EC085518230C0F71281612FA4
:101AF00070E0762F662766277F778381682B90E0DA
:101B000080E00E9400172DEC3CEC4CEC5DE30E9461
:101B1000B71751C0628170E090E080E00E9400172A
:101B20004B015C01F701138117FF0AC0AC019B0157
:101B300060E070E080E89FEB0E945F164B015C0163
:101B40001F70612F70E090E080E00E9402172DEC82
:101B50003CEC4CEC5DE30E94B717A50194010E9498
:101B600060166C8B7D8B8E8B9F8B81E0DF91CF918C
:101B70001F91FF90EF90BF90AF909F908F9008952E
:101B80001281612F70E090E080E00E9400174B010D
:101B90005C01F70163816F7070E090E080E00E946B
:101BA00002172DEC3CEC4CEC5DE30E94B717A5014D
:101BB00094010E94601617FFD4CF9058D2CFCF93D4
:101BC000DF93EB01FC0183894BE050E06FE671E0AD
:101BD0008C30C1F058F44BE050E069E671E08B3096
:101BE00089F04BE050E061E871E00CC04BE050E060
:101BF00065E771E0853131F04BE050E06BE771E073
:101C0000863179F7CE010E9473191B86DF91CF913F
:101C100008950F931F93CF93DF938C01EB0188E21C
:101C2000DB011D928A95E9F7F801828193810E9478
:101C3000DF0D81E090E0A0E0B0E08C879D87AE876B
:101C4000BF87F80184819581A681B781888B998BA4
:101C5000AA8BBB8B8CE090E0A0E0B0E08C8B9D8BDE
:101C6000AE8BBF8BBE01828193810E946D03D80130
:101C70001296ED91FC9183898C3009F441C078F47F
:101C80008B3009F1188E198E1A8E1B8E1C8E1D8EAC
:101C90001E8E1F8E18A219A21AA21BA22CC085513B
:101CA000823080F780E090E0A8ECB2E4888F998FD2
:101CB000AA8FBB8F1C8E1D8E1E8E1F8E8DEC9CECF2
:101CC000ACECBDE314C080E090E0A0EAB2E4888F01
:101CD000998FAA8FBB8F80E090E0A0EAB1E48C8F4F
:101CE0009D8FAE8FBF8F80E090E0A0EAB0E488A324
:101CF00099A3AAA3BBA3DF91CF911F910F91089540
:101D000080E090E0AEEBB2E4E2CF0F931F93CF936D
:101D1000DF938C01EB0188E2DB011D928A95E9F7E4
:101D2000F801828193810E94DF0D81E090E0A0E0C4
:101D3000B0E08C879D87AE87BF87F801848195814D
:101D4000A681B781888B998BAA8BBB8B8DE090E0A5
:101D5000A0E0B0E08C8B9D8BAE8BBF8BBE018281EF
:101D600093810E946D03D8011296ED91FC918389B5
:101D70008C3091F178F48B30B1F0188E198E1A8E68
:101D80001B8E1C8E1D8E1E8E1F8E18A219A21AA2CB
:101D90001BA21DC08531A9F1863179F780E090E062
:101DA000AAEFB2E432C080E090E0A8E4B2E4888F09
:101DB000998FAA8FBB8F1C8E1D8E1E8E1F8E80E06A
:101DC00090E0A0E0B0E488A399A3AAA3BBA3DF910D
:101DD000CF911F910F91089580E090E0A0E7B2E4C9
:101DE000888F998FAA8FBB8F80E090E0A0EAB1EC3A
:101DF0008C8F9D8FAE8FBF8F80E090E0A0E0BFE31F
:101E0000E2CF80E090E0A0EAB2E4888F998FAA8FB9
:101E1000BB8F80E090E0A0E2B2EC8C8F9D8FAE8F04
:101E2000BF8F8DEC9CECACECBDE3CDCF85ED80930A
:101E3000BC008091C1029091C202A091C302B091F6
:101E4000C4020796A11DB11D23E0B695A7959795ED
:101E500087952A95D1F72091BC0024FD03C01092EC
:101E6000BF0208954091C1025091C2026091C30225
:101E70007091C402452B462B472B69F30097A105AF
:101E8000B10541F02AE22A95F1F700C00197A109B6
:101E9000B109E1CF8091C0020C9422051F920F92EC
:101EA0000FB60F9211242F933F938F939F93AF936D
:101EB000BF9380916F0290917002A0917102B091D6
:101EC000720230916A0223E0230F2D3758F50196F4
:101ED000A11DB11D20936A0280936F02909370023E
:101EE000A0937102B093720280916B0290916C0288
:101EF000A0916D02B0916E020196A11DB11D80935B
:101F00006B0290936C02A0936D02B0936E02BF912E
:101F1000AF919F918F913F912F910F900FBE0F9096
:101F20001F90189526E8230F0296A11DB11DD2CF50
:101F30001F920F920FB60F9211242F933F934F933E
:101F40005F936F937F938F939F93AF93BF93EF9321
:101F5000FF9389EE92E00E94C202FF91EF91BF9140
:101F6000AF919F918F917F916F915F914F913F9131
:101F70002F910F900FBE0F901F9018951F920F92E8
:101F80000FB60F9211242F938F939F93EF93FF938C
:101F9000E091F902F091FA028081E091FF02F09164
:101FA000000382FD1BC09081809102038F5F8F73BD
:101FB00020910303821741F0E0910203F0E0E75122
:101FC000FD4F958F80930203FF91EF919F918F9129
:101FD0002F910F900FBE0F901F9018958081F4CF16
:101FE0001F920F920FB60F9211242F933F934F938E
:101FF0005F936F937F938F939F93AF93BF93EF9371
:10200000FF938091B900887F803609F44AC0F0F5CB
:10201000883209F4A7C018F5803109F49BC0B8F4E0
:10202000882309F4F9C0883009F494C0FF91EF9136
:10203000BF91AF919F918F917F916F915F914F91E0
:102040003F912F910F900FBE0F901F9018958831E0
:1020500009F488C0803251F78093BD0214C08034E7
:1020600009F49DC040F48033B9F38833F9F68093C6
:10207000BD0285ECB0C0803509F485C0883509F40F
:1020800096C0883499F60E94160FD0CF883909F48B
:102090008CC038F5883729F050F4883611F0803735
:1020A00029F683E08093BF021092610257C08838FE
:1020B00009F47BC0803919F0803809F0B7CF8091DE
:1020C0006102803208F071C0E091610281E08E0F00
:1020D000809361028091BB00F0E0EF5BFD4F808355
:1020E0003DC0803B39F0E0F4803A09F479C0883A89
:1020F00009F09CCF84E08093BF02109240021092BE
:102100003F02E0917502F0917602099580913F02BD
:1021100081110FC081E080933F0210921F0209C01D
:10212000803C09F4A6CF883C09F4A3CF883B09F092
:102130007DCFE091400281E08E0F80934002F0E07D
:10214000E15EFD4F80818093BB00909140028091C1
:102150003F0229C080919A028093BB0085EC809356
:10216000BC0064CF9091BC028091BB02981758F5D7
:10217000E091BC0281E08E0F8093BC02F0E0E55656
:10218000FD4F8081E9CFE091BC0281E08E0F80930A
:10219000BC028091BB00F0E0E556FD4F808390913A
:1021A000BC028091BB029817C8F285E8D8CFE091B5
:1021B000BC0281E08E0F8093BC028091BB00F0E0F6
:1021C000E556FD4F80838091BE0281115CCF81E096
:1021D0008093990284EA8093BC001092BF0226CFBC
:1021E00085EC8093BC001092BF0280916102803226
:1021F00030F4E0916102F0E0EF5BFD4F10826091FE
:10220000610270E0E0917302F091740281E492E067
:102210000995109261020ACF1092BD0234CFE9EE07
:10222000F2E01382128288EE93E0A0E0B0E08483B3
:102230009583A683B78322E131E03183208325ECA7
:1022400030E03587248724EC30E03787268720EC80
:1022500030E0318B208B21EC30E0338B228B22EC71
:1022600030E0358B248B26EC30E0378B268B118EBB
:10227000128E138E148EE6E8F3E0138212828483AA
:102280009583A683B78384E291E091838083A7EB53
:10229000B3E082E015968C9315978BE016968C939D
:1022A0001697EFE3F2E0E4911796EC931797EBE2C1
:1022B000F2E0E4911896EC93189740E85EE360E052
:1022C00070E01D964D935D936D937C93509753965C
:1022D0008C93539780E591E055969C938E935497F9
:1022E0000A2E1B2E57961C920E92112456974FEFD2
:1022F0005FEFBA0158964D935D936D937C935B9716
:1023000082E491E05D969C938E935C970A2E1B2E3F
:102310005F961C920E9211245E9790964D935D935A
:102320006D937C93939710929F0310929E03E2E922
:10233000F3E01382128286E391E09183808380E24E
:10234000848384E1818784E0828713860895CF9314
:10235000DF93CDB7DEB7E1970FB6F894DEBF0FBEBF
:10236000CDBF789484B5826084BD84B5816084BD1E
:1023700085B5826085BD85B5816085BD80916E0023
:10238000816080936E001092810080918100826054
:102390008093810080918100816080938100809191
:1023A00080008160809380008091B1008460809380
:1023B000B1008091B00081608093B00080917A007C
:1023C000846080937A0080917A00826080937A00A2
:1023D00080917A00816080937A0080917A00806891
:1023E00080937A001092C100E091F902F091FA0214
:1023F00082E08083E091F502F091F6021082E09194
:10240000F702F091F8028FEC808310920103E091C3
:10241000FD02F091FE0286E08083E091FB02F091E4
:10242000FC02808180618083E091FB02F091FC02DC
:10243000808188608083E091FB02F091FC028081C2
:1024400080688083E091FB02F091FC0280818F7DA7
:10245000808386E891E00E94960B61E083E00E9411
:10246000A2010E940B051092970380919C03823079
:1024700018F098E09093970380939A0362E370E0DA
:1024800080E090E00E940A0260919D0382E993E05F
:102490000E94330768EE73E080E090E00E940A0239
:1024A00060E382E993E00E94970A0BE416E4C80116
:1024B0000197F1F760E382E993E00E94970AC8016F
:1024C0000197F1F760E382E993E00E94970A83E5C0
:1024D00092E00197F1F760E282E993E00E94970AA7
:1024E00060919703606240E082E993E00E94B00A45
:1024F00084E08093980340E06CE082E993E00E94DE
:10250000B00A40E061E082E993E00E94B00A0BE388
:102510001FE1C8010197F1F782E08093990340E041
:1025200066E082E993E00E94B00A40E062E082E95E
:1025300093E00E94B00AC8010197F1F788E0809308
:102540009D0360E082E993E00E94330762E080919E
:10255000BC030E94A2012FB7F89480916F02909162
:102560007002A0917102B09172022FBF805D9740FE
:10257000A109B1098093C0039093C103A093C20342
:10258000B093C30387E38093C90383E08093A003E0
:1025900080919E0390919F03009711F00E94EA188A
:1025A00086E090E00E944E188C0187E7F801808356
:1025B00086E893E092838183138280E290E09583A2
:1025C000848310939F0300939E030E940B0581E078
:1025D000F8018383C8010E948806882309F4F5C2A4
:1025E00080ED89AB21E030E0AE014F5F5F4FBE016F
:1025F0006F5C7F4F80919E0390919F030E944C07D8
:102600008981853509F0E1C28AEA0E948A0890939F
:10261000A2038093A1038CEA0E948A089093A403EA
:102620008093A3038EEA0E948A089093A603809366
:10263000A50380EB0E948A089093B2038093B103B4
:1026400082EB0E948A089093B4038093B30384EBD7
:102650000E948A089093B6038093B50386EB0E948C
:102660008A089093A8038093A70388EB0E948A08A6
:102670009093AA038093A9038AEB0E948A089093FF
:10268000AC038093AB038CEB0E948A089093AE035B
:102690008093AD038EEB0E948A089093B0038093E1
:1026A000AF0386E691E00E94A90B8AE591E00E94C3
:1026B000A90B80E591E09AA789A78091CD0390911D
:1026C000CE039CA78BA78091CF039091D003A091BC
:1026D000D103B091D2038DA79EA7AFA7B8ABBE011F
:1026E0006F5F7F4FCE0189960E94850E87E391E050
:1026F0000E94A90B84E291E00E94A90B86E191E07F
:102700000E943103CE0101960E94960B89E091E070
:102710000E9431036D857E858F8598890E948A0C81
:102720008DEF90E00E94310369897A898B899C89B9
:102730000E948A0C81EF90E00E943103498D5A8DEE
:102740006B8D7C8D89EE92E00E94B90B8FEE90E04C
:102750000E94A90B83EE90E00E9431034D8D5E8DA7
:102760006F8D78A189EE92E00E94B90B81EE90E026
:102770000E94A90B85ED90E00E94310349A15AA166
:102780006BA17CA189EE92E00E94B90B83ED90E0F1
:102790000E94A90B82E491E09AA789A78091D503B2
:1027A0009091D6039CA78BA78091D7039091D803D3
:1027B000A091D903B091DA038DA79EA7AFA7B8ABBC
:1027C000BE016F5F7F4FCE0189960E94090E83EC98
:1027D00090E00E94A90B85EB90E00E943103CE01AE
:1027E00001960E94960B88EA90E00E9431036D8565
:1027F0007E858F8598890E948A0C8CE990E00E94E2
:10280000310369897A898B899C890E948A0C80E9C5
:1028100090E00E943103498D5A8D6B8D7C8D89EE3D
:1028200092E00E94B90B8EE890E00E94A90B82E82A
:1028300090E00E9431034D8D5E8D6F8D78A189EE01
:1028400092E00E94B90B80E890E00E94A90B84E717
:1028500090E00E94310349A15AA16BA17CA189EEAD
:1028600092E00E94B90B82E790E00E94A90B8CE5F0
:1028700091E00E94960B6DA17EA18FA198A528EEF4
:1028800033E040E050E00E94FC1530936902209351
:10289000680240E061E082E993E00E94B00A8BE3C5
:1028A0009FE10197F1F700E511E082E4A82E81E0B5
:1028B000B82ECC24CA9493E0D92EE12CF12C20E040
:1028C000822E20E0922E6091680270916902072E9C
:1028D000000C880B990B0E940A021AA709A7809185
:1028E000CD039091CE039CA78BA78091CF039091AD
:1028F000D003A091D103B091D2038DA79EA7AFA71B
:10290000B8ABBE016F5F7F4FCE0189960E94260D46
:102910006D897E898F89988D9B01AC010E94241856
:10292000882309F457C187EE91E00E94A90BBAA64B
:10293000A9A68091D5039091D6039CA78BA78091DF
:10294000D7039091D803A091D903B091DA038DA752
:102950009EA7AFA7B8ABBE016F5F7F4FCE01899630
:102960000E94A00C6D897E898F89988D9B01AC0196
:102970000E94241881113DC18CEC91E00E9431032A
:102980004D895E896F89788D89EE92E00E94B90B3E
:102990008AEC91E00E94A90B88EA91E00E94310341
:1029A0000E94AA08AB01BC0189EE92E00E945E0B76
:1029B00085EA91E00E94A90B8EE00E94D30124E6F3
:1029C00030E0DC010E944118A70196010E94FC152D
:1029D000309367022093660261E072E089EE92E034
:1029E0000E949E0C609166027091670289EE92E0EF
:1029F0000E94900B82EC91E00E94960B80916602FF
:102A00009091670261E049970CF060E083E00E94DA
:102A100056018FE00E94D3019C01ACE9BFEF0E94F8
:102A20003918A70196010E94FC152C593F4F4F4FB2
:102A30005F4F309365022093640264EC71E089EE8D
:102A400092E00E949E0C609164027091650289EE92
:102A500092E00E94900B82EC91E00E94960B80E144
:102A60000E94D30124E630E0DC010E944118A70156
:102A700096010E94FC15309363022093620263ED7D
:102A800071E089EE92E00E949E0C6091620270916A
:102A9000630289EE92E00E94900B82EC91E00E942A
:102AA000960B6AE571E089EE92E00E94030B82E8E2
:102AB00091E00E94A90B6AE571E089EE92E00E9424
:102AC000030B80E00E94C70A66EE71E082E993E0A2
:102AD0000E949E0C4D895E896F89788D82E993E012
:102AE0000E94B90B6AEE71E082E993E00E949E0CAD
:102AF0004D895E896F89788D82E993E00E94B90BD8
:102B000062EC71E082E993E00E949E0C81E00E94F9
:102B1000C70A60EF71E082E993E00E949E0C0E9478
:102B2000AA08AB01BC0182E993E00E945E0B64EF4E
:102B300071E082E993E00E949E0C609164027091C2
:102B4000650282E993E00E94900B62EC71E082E9F9
:102B500093E00E949E0C82E00E94C70A6CEF71E035
:102B600082E993E00E949E0C609166027091670278
:102B700082E993E00E94900B62EC71E082E993E0BD
:102B80000E949E0C83E00E94C70A6CE072E082E91A
:102B900093E00E949E0C609162027091630282E950
:102BA00093E00E94900B62EC71E082E993E00E9456
:102BB0009E0C8114910409F486CE0E94AE028823F3
:102BC00009F481CE0E9400007ECE84EA91E00E944A
:102BD000960BFFCF89ED91E00E9431034D895E890C
:102BE0006F89788D89EE92E00E94B90B87ED91E0B4
:102BF0009CCE83EB91E0CECE052E97FB1EF4009485
:102C00000E94131657FD07D00E942E1607FC03D012
:102C10004EF40C94131650954095309521953F4FE6
:102C20004F4F5F4F089590958095709561957F4FB8
:102C30008F4F9F4F08950E945016A59F900DB49FEF
:102C4000900DA49F800D911D11240895B7FF0C9441
:102C50001B160E941B16821B930B0895A1E21A2ECD
:102C6000AA1BBB1BFD010DC0AA1FBB1FEE1FFF1F30
:102C7000A217B307E407F50720F0A21BB30BE40B80
:102C8000F50B661F771F881F991F1A9469F76095C7
:102C90007095809590959B01AC01BD01CF01089581
:102CA000A29FB001B39FC001A39F700D811D11248D
:102CB000911DB29F700D811D1124911D08955058D2
:102CC000BB27AA270E9477160C9478170E946A17D0
:102CD00038F00E94711720F039F49F3F19F426F460
:102CE0000C9467170EF4E095E7FB0C946117E92F3D
:102CF0000E94891758F3BA1762077307840795076C
:102D000020F079F4A6F50C94AB170EF4E0950B2E99
:102D1000BA2FA02D0B01B90190010C01CA01A0012D
:102D20001124FF27591B99F0593F50F4503E68F188
:102D30001A16F040A22F232F342F4427585FF3CFC9
:102D4000469537952795A795F0405395C9F77EF49A
:102D50001F16BA0B620B730B840BBAF09150A1F0E3
:102D6000FF0FBB1F661F771F881FC2F70EC0BA0F69
:102D7000621F731F841F48F4879577956795B795F1
:102D8000F7959E3F08F0B0CF9395880F08F09927EC
:102D9000EE0F9795879508950E943D1708F481E0FE
:102DA00008950E94911788F09F5798F0B92F99279E
:102DB000B751B0F0E1F0660F771F881F991F1AF026
:102DC000BA95C9F714C0B13091F00E94AB17B1E0C9
:102DD00008950C94AB17672F782F8827B85F39F0C8
:102DE000B93FCCF3869577956795B395D9F73EF4BF
:102DF00090958095709561957F4F8F4F9F4F089567
:102E0000E89409C097FB3EF4909580957095619584
:102E10007F4F8F4F9F4F9923A9F0F92F96E9BB273A
:102E20009395F695879577956795B795F111F8CFB6
:102E3000FAF4BB0F11F460FF1BC06F5F7F4F8F4F21
:102E40009F4F16C0882311F096E911C0772321F017
:102E50009EE8872F762F05C0662371F096E8862FAF
:102E600070E060E02AF09A95660F771F881FDAF706
:102E7000880F9695879597F90895990F0008550F33
:102E8000AA0BE0E8FEEF16161706E807F907C0F0F0
:102E900012161306E407F50798F0621B730B840BF8
:102EA000950B39F40A2661F0232B242B252B21F4D2
:102EB00008950A2609F4A140A6958FEF811D811D72
:102EC000089597F99F6780E870E060E008959FEFAC
:102ED00080EC089500240A941616170618060906B1
:102EE000089500240A941216130614060506089580
:102EF000092E0394000C11F4882352F0BB0F40F408
:102F0000BF2B11F460FF04C06F5F7F4F8F4F9F4F47
:102F1000089557FD9058440F551F59F05F3F71F0C9
:102F20004795880F97FB991F61F09F3F79F0879530
:102F30000895121613061406551FF2CF4695F1DFB9
:102F400008C0161617061806991FF1CF8695710549
:102F5000610508940895E894BB2766277727CB017D
:102F600097F908950E943D1708F48FEF08950E9485
:102F7000CA170C9478170E946A1738F00E947117CC
:102F800020F0952311F00C9461170C94671711240D
:102F90000C94AC170E94891770F3959FC1F3950F9D
:102FA00050E0551F629FF001729FBB27F00DB11DCD
:102FB000639FAA27F00DB11DAA1F649F6627B00D5D
:102FC000A11D661F829F2227B00DA11D621F739F46
:102FD000B00DA11D621F839FA00D611D221F749F54
:102FE0003327A00D611D231F849F600D211D822F9B
:102FF000762F6A2F11249F5750409AF0F1F08823C2
:103000004AF0EE0FFF1FBB1F661F771F881F9150EE
:103010005040A9F79E3F510580F00C9461170C9425
:10302000AC175F3FE4F3983ED4F3869577956795A8
:10303000B795F795E7959F5FC1F7FE2B880F911D18
:103040009695879597F908950E943D17880B990BDF
:103050000895DB018F939F930E941B16BF91AF9140
:10306000A29F800D911DA39F900DB29F900D1124E2
:1030700008950E945016332312F48A1B9B0B0C9464
:1030800043180E945016B7FF0895821B930B0895B2
:10309000EE0FFF1F0590F491E02D09940F931F93FD
:1030A000CF93DF938230910510F482E090E0E091BD
:1030B000DD03F091DE0330E020E0B0E0A0E03097E7
:1030C00099F42115310509F44AC0281B390B243025
:1030D0003105D8F58A819B816115710589F1FB0164
:1030E00093838283FE0111C040815181028113814B
:1030F00048175907E0F04817590799F4109761F0FD
:1031000012960C93129713961C933296CF01DF916F
:10311000CF911F910F9108950093DD031093DE036B
:10312000F4CF2115310551F04217530738F0A901AA
:10313000DB019A01BD01DF01F801C1CFEF01F9CF39
:103140009093DE038093DD03CDCFFE01E20FF31FEA
:10315000819391932250310939832883D7CF2091CD
:10316000DB033091DC03232B41F4209102013091E9
:1031700003013093DC032093DB03209100013091A5
:1031800001012115310541F42DB73EB740910401ED
:1031900050910501241B350BE091DB03F091DC031A
:1031A000E217F307A0F42E1B3F0B2817390778F01E
:1031B000AC014E5F5F4F2417350748F04E0F5F1F7D
:1031C0005093DC034093DB03819391939FCFF0E016
:1031D000E0E09CCFCF93DF930097E9F0FC013297BA
:1031E00013821282A091DD03B091DE03ED0130E085
:1031F00020E01097A1F420813181820F931F20914C
:10320000DB033091DC032817390709F061C0F09324
:10321000DC03E093DB03DF91CF910895EA01CE1741
:10322000DF07E8F54A815B819E0141155105B1F741
:10323000E901FB83EA8349915991C40FD51FEC172B
:10324000FD0761F4808191810296840F951FE90149
:1032500099838883828193819B838A83F0E0E0E075
:1032600012968D919C9113970097B9F52D913C91F1
:103270001197CD010296820F931F2091DB033091AD
:10328000DC032817390739F6309751F51092DE0321
:103290001092DD03B093DC03A093DB03BCCFD38398
:1032A000C28340815181840F951FC817D90761F4EB
:1032B0004E5F5F4F88819981480F591F518340832A
:1032C0008A819B81938382832115310509F0B0CFD8
:1032D000F093DE03E093DD039ECFFD01DC01C0CF60
:1032E00013821282D7CFFB01DC014150504048F0DD
:1032F00001900D920020C9F701C01D92415050402D
:10330000E0F70895F894FFCF0000DF03800000008D
:1033100040001400540000000000E4024402710266
:103320004C03A20280029402000000000407D706AA
:103330004707AD06D006BD06AE0600000000F90A3C
:10334000440247076C03000000004A07010B4B07CB
:10335000A00C090E000000004A07FF0A4B07260DCB
:10336000850E0D0A006E616E00696E66006F7666EE
:1033700000444854313100444854313200444854E8
:103380003231004448543232004448543F005369BB
:103390007374656D20696E74656C6967656E742001
:1033A000646520697269676174696900436F756C4F
:1033B00064206E6F742066696E6420612076616C93
:1033C00069642073656E736F720025004169722015
:1033D0005175616C697479203A20004C6967687492
:1033E00020496E74656E73697479203A2000543AEE
:1033F00020004320483A2000503A2000504120410C
:10340000513A2000536F696C204D6F697374757267
:10341000653A20004C6967687420496E74656E7364
:063420006974793A2000F6
:107E0000112484B714BE81FFF0D085E080938100F7
:107E100082E08093C00088E18093C10086E0809377
:107E2000C20080E18093C4008EE0C9D0259A86E02C
:107E300020E33CEF91E0309385002093840096BBD3
:107E4000B09BFECF1D9AA8958150A9F7CC24DD24C4
:107E500088248394B5E0AB2EA1E19A2EF3E0BF2EE7
:107E6000A2D0813461F49FD0082FAFD0023811F036
:107E7000013811F484E001C083E08DD089C08234E0
:107E800011F484E103C0853419F485E0A6D080C0E4
:107E9000853579F488D0E82EFF2485D0082F10E0AE
:107EA000102F00270E291F29000F111F8ED06801E7
:107EB0006FC0863521F484E090D080E0DECF843638
:107EC00009F040C070D06FD0082F6DD080E0C81688
:107ED00080E7D80618F4F601B7BEE895C0E0D1E017
:107EE00062D089930C17E1F7F0E0CF16F0E7DF06D8
:107EF00018F0F601B7BEE89568D007B600FCFDCFD4
:107F0000A601A0E0B1E02C9130E011968C91119780
:107F100090E0982F8827822B932B1296FA010C0160
:107F200087BEE89511244E5F5F4FF1E0A038BF0790
:107F300051F7F601A7BEE89507B600FCFDCF97BE46
:107F4000E89526C08437B1F42ED02DD0F82E2BD052
:107F50003CD0F601EF2C8F010F5F1F4F84911BD097
:107F6000EA94F801C1F70894C11CD11CFA94CF0C13
:107F7000D11C0EC0853739F428D08EE10CD085E9AC
:107F80000AD08FE07ACF813511F488E018D01DD067
:107F900080E101D065CF982F8091C00085FFFCCF94
:107FA0009093C60008958091C00087FFFCCF809118
:107FB000C00084FD01C0A8958091C6000895E0E648
:107FC000F0E098E1908380830895EDDF803219F02E
:107FD00088E0F5DFFFCF84E1DECF1F93182FE3DFCA
:107FE0001150E9F7F2DF1F91089580E0E8DFEE27F6
:047FF000FF270994CA
:027FFE00040479
:00000001FF
